:020000040800F2
:1000000008070020890100089101000893010008F9
:100010009501000897010008990100080000000000
:100020000000000000000000000000009B0100082C
:100030009D010008000000009F010008A1010008C8
:10004000A3010008A3010008A3010008A301000800
:10005000A3010008A3010008A3010008A3010008F0
:10006000A3010008A3010008A3010008A3010008E0
:10007000A3010008A3010008A3010008A3010008D0
:10008000A3010008A3010008A3010008A3010008C0
:10009000A3010008A3010008A3010008A3010008B0
:1000A000A3010008A3010008A3010008A3010008A0
:1000B000A3010008A3010008A3010008A301000890
:1000C000A3010008A3010008A3010008A301000880
:1000D000A3010008A3010008A3010008A301000870
:1000E000A3010008A3010008A301000800F002F822
:1000F00000F03AF80AA090E8000C82448344AAF188
:100100000107DA4501D100F02FF8AFF2090EBAE885
:100110000F0013F0010F18BFFB1A43F0010318473B
:100120004407000064070000103A24BF78C878C173
:10013000FAD8520724BF30C830C144BF04680C60ED
:10014000704700000023002400250026103A28BF35
:1001500078C1FBD8520728BF30C148BF0B60704739
:100160001FB51FBD10B510BD00F050F81146FFF7C8
:10017000F7FF00F091FA00F06EF803B4FFF7F2FF1A
:1001800003BC00F075F800000948804709480047A3
:10019000FEE7FEE7FEE7FEE7FEE7FEE7FEE7FEE737
:1001A000FEE7FEE704480549054A064B7047000094
:1001B00065050008ED000008080100200807002080
:1001C000080300200803002010B5431C02E010F8CB
:1001D000011B71B18107FAD14FF0013202C88C1AAC
:1001E0008C4314EAC211F9D0C01A0A0603D0C01E0B
:1001F00010BDC01A10BD0A0401D0801E10BD090236
:10020000FCD0401E10BD704770477047754600F027
:100210002BF8AE4605006946534620F00700854698
:1002200018B020B5FFF7BEFFBDE820404FF0000634
:100230004FF000074FF000084FF0000B21F00701CE
:10024000AC46ACE8C009ACE8C009ACE8C009ACE811
:10025000C0098D46704710B50446AFF300802046B4
:10026000BDE81040FFF789BF00487047A400002098
:1002700001491820ABBEFEE72600020070470000CF
:100280002E48806940F400702C4988610846406817
:1002900020F4404048600846406840F40040486010
:1002A000881527490860C01C091D08604FF44010DC
:1002B0002349283108602348214930310860224809
:1002C0001F490C3108601E48001D006840F0010005
:1002D0001B49091D086000BF00BF00BF00BF00BF71
:1002E0001748001D006840F001001549091D08600D
:1002F0000846006840F00800086000BF1048001D74
:10030000006800F008000028F8D10D48001D0068C2
:1003100040F004000A49091D086000BF0848001D9C
:10032000006800F004000028F8D10548001D0068AE
:1003300040F480000249091D086070470010024027
:100340000424014062900200C0B6010008488069A0
:1003500040F00400064988610648006820F0FF006C
:10036000044908600846006840F0BB000860704718
:1003700000100240000801400A48406940F00100B6
:10038000084948610848806820F0010006498860F3
:1003900006480861064848610420C86042F2A1503E
:1003A0008860704700100240000002404C24014069
:1003B000000000200D48806940F004000B4988616E
:1003C0000B48006820F4706009490860084600681E
:1003D00020F4704008600846006820F4702008602F
:1003E0000846006820F47000086070470010024062
:1003F0000008014000201CE00F4900EB80020F4B79
:1004000043F822100E4900EB800203EB8202516098
:10041000002100EB800203EB8202916000EB80027E
:1004200003EB8202D16000EB800203EB82021161D8
:10043000401C0428E0DB70470AD7233C2000002042
:100440000000A0400C48C06940F001000A49C861A2
:1004500042F21070810688858F20088546F2600080
:1004600008834FF4FA708886088741F211100884D7
:1004700001200880888270470010024010B500F00B
:1004800001F810BD0CB500200190009033480068C1
:1004900040F480303149086000BF3048006800F403
:1004A000003000900198401C0190009818B9019804
:1004B000B0F5A06FF1D12948006800F4003010B108
:1004C0000120009001E0002000900098012843D115
:1004D0002348006840F01000214908600846006881
:1004E00020F0070008600846006840F0020008603D
:1004F0001A484068194948600846406848600846FC
:10050000406840F4806048600846406820F47C10F1
:1005100048600846406840F4E810486008460068B3
:1005200040F08070086000BF0C48006800F0007068
:100530000028F9D00948406820F0030007494860C6
:100540000846406840F00200486000BF0348406829
:1005500000F00C000828F9D10CBD0000001002408A
:100560000020024010B51348006840F00100114916
:10057000086008464068104908400E49486008462F
:1005800000680E4908400B4908600846006820F4DE
:10059000802008600846406820F4FE0048604FF460
:1005A0001F008860FFF76AFF4FF000600449086091
:1005B00010BD0000001002400000FFF8FFFFF6FE33
:1005C00008ED00E01248806940F008001049886199
:1005D0000846C06940F48020C8610E48006820F4D5
:1005E0007F400C4908600846006840F49440086069
:1005F0000948008840F400500749088008460088F0
:1006000040F00800088040F6A660091F0880704787
:1006100000100240040C01400C480040C1B2054AE1
:10062000118000BF0349091F098801F0800180295A
:10063000F8D170470448004000BF011EA0F101003E
:10064000FBD1704770B5044600250026002C01DA66
:100650000126644200BF0A2094FBF0F100FB114028
:100660003030C2B228466D1C0A490A540A2094FB55
:10067000F0F4002CEFD11EB12D2228466D1C0A5437
:100680000020044948552946024800F0DBF801489B
:1006900070BD000070000020FFF78CFEFFF76CFEBD
:1006A000FFF7EEFDFFF7A6FEFFF750FEFFF7CAFECD
:1006B000FFF788FFABE056490988554A52888818E9
:1006C000FFF7C0FF5249898808445149C988461834
:1006D000304600F0A5F842F21070FFF7ADFF7DE064
:1006E0004C480068B0F57A7F04DD4FF47A704949D0
:1006F00008600EE047480068B0F5967F04DA4FF4D2
:1007000096704449086004E04FF08040808E414973
:1007100008604148006840F2E241884203DD084633
:100720003D4908600EE03C480068B0F5967F04DA69
:100730004FF496703849086004E04FF08040008F15
:100740003549086032490988314A5288881A002898
:1007500001DB014600E04142642914DD2C48008899
:100760002B494988884201DD012401E04FF0FF3424
:10077000284800680A2101FB04004907888642F2E4
:100780001070FFF759FF22498988214AD288881AB8
:10079000002801DB014600E04142642914DD1C48C9
:1007A00080881B49C988884201DA012501E04FF0A1
:1007B000FF3519480068052101FB050089070887F6
:1007C00042F21070FFF738FF11490888FFF73AFF2F
:1007D000064600F025F81148FFF72EFF0C4A128854
:1007E0000B4B5B88D11A002901DB0A4600E04A4224
:1007F000322A3FF775AF064A9288054BDB88D01A3C
:10080000002801DB024600E04242322AF1DC52E7D6
:10081000000000201000002014000020A08601002D
:1008200070B504462046FFF7CFFC0546002303E0E1
:10083000E05CFFF7F3FE5B1CAB42F9DB0A20FFF73D
:10084000EDFE70BD30B50B4600215A1E06E0445C3B
:10085000855C45548454491C521E00BF9142F6DB0E
:1008600030BD0000840800080000002020000000C7
:1008700028010008A408000820000020E806000065
:10088000440100080000000000000000000000001B
:100890000000000000000000000000000000000058
:0408A000E803000069
:040000050800018965
:00000001FF
